{
  "abi": [
    {
      "inputs": [
        {
          "internalType": "address",
          "name": "usdc_",
          "type": "address"
        },
        {
          "internalType": "address",
          "name": "terraAddress_",
          "type": "address"
        }
      ],
      "stateMutability": "nonpayable",
      "type": "constructor"
    },
    {
      "inputs": [
        {
          "internalType": "uint256",
          "name": "orderId",
          "type": "uint256"
        }
      ],
      "name": "completeOrder",
      "outputs": [],
      "stateMutability": "nonpayable",
      "type": "function"
    },
    {
      "inputs": [
        {
          "internalType": "string",
          "name": "dataType_",
          "type": "string"
        },
        {
          "internalType": "uint256",
          "name": "price",
          "type": "uint256"
        },
        {
          "internalType": "uint256",
          "name": "buyerPublicKey",
          "type": "uint256"
        },
        {
          "internalType": "uint256",
          "name": "buyerN",
          "type": "uint256"
        }
      ],
      "name": "createOrder",
      "outputs": [],
      "stateMutability": "nonpayable",
      "type": "function"
    },
    {
      "inputs": [
        {
          "internalType": "uint256",
          "name": "encryptedText",
          "type": "uint256"
        },
        {
          "internalType": "uint256",
          "name": "privateKey",
          "type": "uint256"
        },
        {
          "internalType": "uint256",
          "name": "n",
          "type": "uint256"
        }
      ],
      "name": "decrypt",
      "outputs": [
        {
          "internalType": "uint256",
          "name": "",
          "type": "uint256"
        }
      ],
      "stateMutability": "view",
      "type": "function"
    },
    {
      "inputs": [
        {
          "internalType": "uint256[]",
          "name": "encryptedText",
          "type": "uint256[]"
        },
        {
          "internalType": "uint256",
          "name": "privateKey",
          "type": "uint256"
        },
        {
          "internalType": "uint256",
          "name": "n",
          "type": "uint256"
        }
      ],
      "name": "decryptArray",
      "outputs": [
        {
          "internalType": "bytes",
          "name": "",
          "type": "bytes"
        }
      ],
      "stateMutability": "view",
      "type": "function"
    },
    {
      "inputs": [
        {
          "internalType": "uint256",
          "name": "orderId",
          "type": "uint256"
        },
        {
          "internalType": "uint256",
          "name": "prime1",
          "type": "uint256"
        },
        {
          "internalType": "uint256",
          "name": "prime2",
          "type": "uint256"
        }
      ],
      "name": "disputeOrder",
      "outputs": [],
      "stateMutability": "nonpayable",
      "type": "function"
    },
    {
      "inputs": [],
      "name": "disputePeriod",
      "outputs": [
        {
          "internalType": "uint256",
          "name": "",
          "type": "uint256"
        }
      ],
      "stateMutability": "view",
      "type": "function"
    },
    {
      "inputs": [
        {
          "internalType": "uint256",
          "name": "message",
          "type": "uint256"
        },
        {
          "internalType": "uint256",
          "name": "publicKey",
          "type": "uint256"
        },
        {
          "internalType": "uint256",
          "name": "n",
          "type": "uint256"
        }
      ],
      "name": "encrypt",
      "outputs": [
        {
          "internalType": "uint256",
          "name": "",
          "type": "uint256"
        }
      ],
      "stateMutability": "view",
      "type": "function"
    },
    {
      "inputs": [
        {
          "internalType": "bytes",
          "name": "message",
          "type": "bytes"
        },
        {
          "internalType": "uint256",
          "name": "publicKey",
          "type": "uint256"
        },
        {
          "internalType": "uint256",
          "name": "n",
          "type": "uint256"
        }
      ],
      "name": "encryptBytes",
      "outputs": [
        {
          "internalType": "uint256[]",
          "name": "",
          "type": "uint256[]"
        }
      ],
      "stateMutability": "view",
      "type": "function"
    },
    {
      "inputs": [
        {
          "internalType": "uint256",
          "name": "orderId",
          "type": "uint256"
        },
        {
          "internalType": "uint8",
          "name": "v_",
          "type": "uint8"
        },
        {
          "internalType": "bytes32",
          "name": "r_",
          "type": "bytes32"
        },
        {
          "internalType": "bytes32",
          "name": "s_",
          "type": "bytes32"
        },
        {
          "internalType": "bytes32",
          "name": "messageHash_",
          "type": "bytes32"
        },
        {
          "internalType": "uint256[]",
          "name": "encryptedData_",
          "type": "uint256[]"
        }
      ],
      "name": "fulfillOrder",
      "outputs": [],
      "stateMutability": "nonpayable",
      "type": "function"
    },
    {
      "inputs": [
        {
          "internalType": "uint256",
          "name": "a",
          "type": "uint256"
        },
        {
          "internalType": "uint256",
          "name": "b",
          "type": "uint256"
        }
      ],
      "name": "gcd",
      "outputs": [
        {
          "internalType": "uint256",
          "name": "",
          "type": "uint256"
        }
      ],
      "stateMutability": "pure",
      "type": "function"
    },
    {
      "inputs": [],
      "name": "getKeys",
      "outputs": [
        {
          "internalType": "uint256",
          "name": "",
          "type": "uint256"
        },
        {
          "internalType": "uint256",
          "name": "",
          "type": "uint256"
        },
        {
          "internalType": "uint256",
          "name": "",
          "type": "uint256"
        }
      ],
      "stateMutability": "nonpayable",
      "type": "function"
    },
    {
      "inputs": [],
      "name": "getOrders",
      "outputs": [
        {
          "components": [
            {
              "internalType": "uint8",
              "name": "v",
              "type": "uint8"
            },
            {
              "internalType": "bytes32",
              "name": "r",
              "type": "bytes32"
            },
            {
              "internalType": "bytes32",
              "name": "s",
              "type": "bytes32"
            },
            {
              "internalType": "bytes32",
              "name": "messageHash",
              "type": "bytes32"
            },
            {
              "internalType": "uint256",
              "name": "price",
              "type": "uint256"
            },
            {
              "internalType": "string",
              "name": "dataType",
              "type": "string"
            },
            {
              "internalType": "uint256[]",
              "name": "encryptedData",
              "type": "uint256[]"
            },
            {
              "internalType": "uint256",
              "name": "buyerPublicKey",
              "type": "uint256"
            },
            {
              "internalType": "uint256",
              "name": "buyerN",
              "type": "uint256"
            },
            {
              "internalType": "uint256",
              "name": "status",
              "type": "uint256"
            },
            {
              "internalType": "uint256",
              "name": "creationTime",
              "type": "uint256"
            },
            {
              "internalType": "uint256",
              "name": "pendingTime",
              "type": "uint256"
            },
            {
              "internalType": "uint256",
              "name": "closedTime",
              "type": "uint256"
            },
            {
              "internalType": "address",
              "name": "seller",
              "type": "address"
            },
            {
              "internalType": "address",
              "name": "buyer",
              "type": "address"
            }
          ],
          "internalType": "struct Marketplace.Order[]",
          "name": "",
          "type": "tuple[]"
        }
      ],
      "stateMutability": "view",
      "type": "function"
    },
    {
      "inputs": [
        {
          "internalType": "uint256",
          "name": "orderId",
          "type": "uint256"
        },
        {
          "internalType": "uint256",
          "name": "privateKey",
          "type": "uint256"
        }
      ],
      "name": "getUnencryptedPurchase",
      "outputs": [
        {
          "internalType": "bytes",
          "name": "",
          "type": "bytes"
        }
      ],
      "stateMutability": "nonpayable",
      "type": "function"
    },
    {
      "inputs": [
        {
          "internalType": "bytes",
          "name": "data",
          "type": "bytes"
        },
        {
          "internalType": "uint8",
          "name": "v",
          "type": "uint8"
        },
        {
          "internalType": "bytes32",
          "name": "r",
          "type": "bytes32"
        },
        {
          "internalType": "bytes32",
          "name": "s",
          "type": "bytes32"
        }
      ],
      "name": "isTerraSignature",
      "outputs": [
        {
          "internalType": "bool",
          "name": "",
          "type": "bool"
        }
      ],
      "stateMutability": "view",
      "type": "function"
    },
    {
      "inputs": [
        {
          "internalType": "uint256",
          "name": "a_",
          "type": "uint256"
        },
        {
          "internalType": "uint256",
          "name": "m_",
          "type": "uint256"
        }
      ],
      "name": "multiplicative_inverse",
      "outputs": [
        {
          "internalType": "uint256",
          "name": "",
          "type": "uint256"
        }
      ],
      "stateMutability": "pure",
      "type": "function"
    },
    {
      "inputs": [
        {
          "internalType": "uint256",
          "name": "",
          "type": "uint256"
        }
      ],
      "name": "orders",
      "outputs": [
        {
          "internalType": "uint8",
          "name": "v",
          "type": "uint8"
        },
        {
          "internalType": "bytes32",
          "name": "r",
          "type": "bytes32"
        },
        {
          "internalType": "bytes32",
          "name": "s",
          "type": "bytes32"
        },
        {
          "internalType": "bytes32",
          "name": "messageHash",
          "type": "bytes32"
        },
        {
          "internalType": "uint256",
          "name": "price",
          "type": "uint256"
        },
        {
          "internalType": "string",
          "name": "dataType",
          "type": "string"
        },
        {
          "internalType": "uint256",
          "name": "buyerPublicKey",
          "type": "uint256"
        },
        {
          "internalType": "uint256",
          "name": "buyerN",
          "type": "uint256"
        },
        {
          "internalType": "uint256",
          "name": "status",
          "type": "uint256"
        },
        {
          "internalType": "uint256",
          "name": "creationTime",
          "type": "uint256"
        },
        {
          "internalType": "uint256",
          "name": "pendingTime",
          "type": "uint256"
        },
        {
          "internalType": "uint256",
          "name": "closedTime",
          "type": "uint256"
        },
        {
          "internalType": "address",
          "name": "seller",
          "type": "address"
        },
        {
          "internalType": "address",
          "name": "buyer",
          "type": "address"
        }
      ],
      "stateMutability": "view",
      "type": "function"
    },
    {
      "inputs": [],
      "name": "randomNonce",
      "outputs": [
        {
          "internalType": "uint256",
          "name": "",
          "type": "uint256"
        }
      ],
      "stateMutability": "view",
      "type": "function"
    },
    {
      "inputs": [
        {
          "internalType": "uint256",
          "name": "a",
          "type": "uint256"
        },
        {
          "internalType": "uint256",
          "name": "b",
          "type": "uint256"
        },
        {
          "internalType": "uint256",
          "name": "c",
          "type": "uint256"
        }
      ],
      "name": "recursiveExponent",
      "outputs": [
        {
          "internalType": "uint256",
          "name": "",
          "type": "uint256"
        }
      ],
      "stateMutability": "view",
      "type": "function"
    },
    {
      "inputs": [],
      "name": "terraAddress",
      "outputs": [
        {
          "internalType": "address",
          "name": "",
          "type": "address"
        }
      ],
      "stateMutability": "view",
      "type": "function"
    },
    {
      "inputs": [],
      "name": "usdc",
      "outputs": [
        {
          "internalType": "contract IERC20",
          "name": "",
          "type": "address"
        }
      ],
      "stateMutability": "view",
      "type": "function"
    }
  ],
  "bytecode": {
    "object": "0x608060405260646002553480156200001657600080fd5b506040516200242538038062002425833981016040819052620000399162000088565b600080546001600160a01b039384166001600160a01b03199182161790915560018054929093169116179055620000c0565b80516001600160a01b03811681146200008357600080fd5b919050565b600080604083850312156200009c57600080fd5b620000a7836200006b565b9150620000b7602084016200006b565b90509250929050565b61235580620000d06000396000f3fe608060405234801561001057600080fd5b506004361061012c5760003560e01c80636f4fb8f4116100ad578063b6adaaff11610071578063b6adaaff146102bd578063b9650dac146102d0578063d875cc3e14610244578063e1414268146102e3578063f636e15b146102f657600080fd5b80636f4fb8f4146102445780637bc910f01461025757806380ab61c91461026a5780638ac320391461027d578063a85c38ef1461029057600080fd5b80633e413bee116100f45780633e413bee146101ba5780633ee16c67146101e5578063479694c7146101f85780635bf31d4d146102185780636ec33b231461022157600080fd5b806319ea2207146101315780632150c518146101465780632e2dc43e1461016e5780632f205c731461018357806339988a55146101a3575b600080fd5b61014461013f3660046119d5565b610309565b005b61014e610570565b604080519384526020840192909252908201526060015b60405180910390f35b610176610588565b6040516101659190611ac9565b610196610191366004611bef565b610770565b6040516101659190611c3d565b6101ac60045481565b604051908152602001610165565b6000546101cd906001600160a01b031681565b6040516001600160a01b039091168152602001610165565b6001546101cd906001600160a01b031681565b61020b610206366004611cc8565b610787565b6040516101659190611d00565b6101ac60025481565b61023461022f366004611d38565b610794565b6040519015158152602001610165565b6101ac610252366004611d95565b6107ab565b610144610265366004611dc1565b6107b8565b610144610278366004611d95565b610a5e565b6101ac61028b366004611d95565b610e9f565b6102a361029e366004611e29565b610eac565b6040516101659e9d9c9b9a99989796959493929190611e42565b6101446102cb366004611e29565b610fc4565b6101ac6102de366004611eda565b6111ee565b6101966102f1366004611eda565b611215565b6101ac610304366004611eda565b6112a1565b6001805460408051600081526020810180835286905260ff89169181019190915260608101879052608081018690526001600160a01b03909116919060a0016020604051602081039080840390855afa15801561036a573d6000803e3d6000fd5b505050602060405103516001600160a01b0316146103db5760405162461bcd60e51b8152602060048201526024808201527f7369676e6174757265206d7573742062652066726f6d207465727261206164646044820152637265737360e01b60648201526084015b60405180910390fd5b84600387815481106103ef576103ef611efc565b90600052602060002090600f020160000160006101000a81548160ff021916908360ff160217905550836003878154811061042c5761042c611efc565b90600052602060002090600f020160010181905550826003878154811061045557610455611efc565b90600052602060002090600f020160020181905550816003878154811061047e5761047e611efc565b90600052602060002090600f02016003018190555080600387815481106104a7576104a7611efc565b90600052602060002090600f020160060190805190602001906104cb929190611898565b506001600387815481106104e1576104e1611efc565b90600052602060002090600f020160090181905550426003878154811061050a5761050a611efc565b90600052602060002090600f0201600b0181905550336003878154811061053357610533611efc565b90600052602060002090600f0201600d0160006101000a8154816001600160a01b0302191690836001600160a01b03160217905550505050505050565b600080600061057d611327565b925092509250909192565b60606003805480602002602001604051908101604052809291908181526020016000905b82821015610767576000848152602090819020604080516101e081018252600f8602909201805460ff168352600181015493830193909352600283015490820152600382015460608201526004820154608082015260058201805491929160a08401919061061990611f12565b80601f016020809104026020016040519081016040528092919081815260200182805461064590611f12565b80156106925780601f1061066757610100808354040283529160200191610692565b820191906000526020600020905b81548152906001019060200180831161067557829003601f168201915b50505050508152602001600682018054806020026020016040519081016040528092919081815260200182805480156106ea57602002820191906000526020600020905b8154815260200190600101908083116106d6575b505050918352505060078201546020808301919091526008830154604083015260098301546060830152600a8301546080830152600b83015460a0830152600c83015460c0830152600d8301546001600160a01b0390811660e0840152600e909301549092166101009091015290825260019290920191016105ac565b50505050905090565b606061077d84848461141d565b90505b9392505050565b606061077d8484846114df565b60006107a285858585611588565b95945050505050565b600061077d84848461160f565b6000546040516323b872dd60e01b8152336004820152306024820152604481018590526001600160a01b03909116906323b872dd906064016020604051808303816000875af115801561080f573d6000803e3d6000fd5b505050506040513d601f19601f820116820180604052508101906108339190611f4c565b50604080516101e08101825260008082526020820181815292820181815260608084018381526080850189815260a086018b815260c0870184905260e087018a90526101008701899052610120870186905242610140880152610160870186905261018087018690526101a08701869052336101c088015260038054600181018255965286517fc2575a0e9e593c00f959f8c92f12db2869c3395a3b0502d05e2516446f71f85b600f909702968701805460ff191660ff90921691909117815597517fc2575a0e9e593c00f959f8c92f12db2869c3395a3b0502d05e2516446f71f85c87015593517fc2575a0e9e593c00f959f8c92f12db2869c3395a3b0502d05e2516446f71f85d86015590517fc2575a0e9e593c00f959f8c92f12db2869c3395a3b0502d05e2516446f71f85e850155517fc2575a0e9e593c00f959f8c92f12db2869c3395a3b0502d05e2516446f71f85f84015590519093917fc2575a0e9e593c00f959f8c92f12db2869c3395a3b0502d05e2516446f71f86001906109bc9082611fbd565b5060c082015180516109d8916006840191602090910190611898565b5060e0820151600782015561010082015160088201556101208201516009820155610140820151600a820155610160820151600b820155610180820151600c8201556101a0820151600d820180546001600160a01b03199081166001600160a01b03938416179091556101c090930151600e909201805490931691161790555050505050565b60038381548110610a7157610a71611efc565b90600052602060002090600f020160090154600114610aca5760405162461bcd60e51b81526020600482015260156024820152746f72646572206d7573742062652070656e64696e6760581b60448201526064016103d2565b4260025460038581548110610ae157610ae1611efc565b90600052602060002090600f0201600b0154610afd9190612093565b11610b565760405162461bcd60e51b815260206004820152602360248201527f6469737075746520706572696f64206d757374206e6f742068617665207061736044820152621cd95960ea1b60648201526084016103d2565b60038381548110610b6957610b69611efc565b90600052602060002090600f0201600801548183610b8791906120a6565b14610bde5760405162461bcd60e51b815260206004820152602160248201527f7072696d6531202a207072696d6532206d75737420657175616c2062757965726044820152602760f91b60648201526084016103d2565b6000610beb6001836120bd565b610bf66001856120bd565b610c0091906120a6565b90506000610c3260038681548110610c1a57610c1a611efc565b90600052602060002090600f020160070154836112a1565b90506000610cd760038781548110610c4c57610c4c611efc565b90600052602060002090600f0201600601805480602002602001604051908101604052809291908181526020018280548015610ca757602002820191906000526020600020905b815481526020019060010190808311610c93575b50505050508360038981548110610cc057610cc0611efc565b90600052602060002090600f02016008015461141d565b905060038681548110610cec57610cec611efc565b90600052602060002090600f020160030154818051906020012003610d5d5760405162461bcd60e51b815260206004820152602160248201527f6861736865732061726520657175616c2e20696e76616c6964206469737075746044820152606560f81b60648201526084016103d2565b6003808781548110610d7157610d71611efc565b90600052602060002090600f0201600901819055504260038781548110610d9a57610d9a611efc565b600091825260208220600c600f90920201019190915554600380546001600160a01b039092169163a9059cbb919089908110610dd857610dd8611efc565b90600052602060002090600f0201600e0160009054906101000a90046001600160a01b031660038981548110610e1057610e10611efc565b90600052602060002090600f0201600401546040518363ffffffff1660e01b8152600401610e539291906001600160a01b03929092168252602082015260400190565b6020604051808303816000875af1158015610e72573d6000803e3d6000fd5b505050506040513d601f19601f82011682018060405250810190610e969190611f4c565b50505050505050565b600061077d848484611629565b60038181548110610ebc57600080fd5b60009182526020909120600f909102018054600182015460028301546003840154600485015460058601805460ff9096169750939592949193909291610f0190611f12565b80601f0160208091040260200160405190810160405280929190818152602001828054610f2d90611f12565b8015610f7a5780601f10610f4f57610100808354040283529160200191610f7a565b820191906000526020600020905b815481529060010190602001808311610f5d57829003601f168201915b505050600784015460088501546009860154600a870154600b880154600c890154600d8a0154600e909a015498999598949750929550909390926001600160a01b0391821691168e565b60038181548110610fd757610fd7611efc565b90600052602060002090600f0201600901546001146110305760405162461bcd60e51b81526020600482015260156024820152746f72646572206d7573742062652070656e64696e6760581b60448201526064016103d2565b426002546003838154811061104757611047611efc565b90600052602060002090600f0201600b01546110639190612093565b106110b05760405162461bcd60e51b815260206004820152601f60248201527f6469737075746520706572696f64206d7573742068617665207061737365640060448201526064016103d2565b6002600382815481106110c5576110c5611efc565b90600052602060002090600f02016009018190555042600382815481106110ee576110ee611efc565b600091825260208220600c600f90920201019190915554600380546001600160a01b039092169163a9059cbb91908490811061112c5761112c611efc565b90600052602060002090600f0201600d0160009054906101000a90046001600160a01b03166003848154811061116457611164611efc565b90600052602060002090600f0201600401546040518363ffffffff1660e01b81526004016111a79291906001600160a01b03929092168252602082015260400190565b6020604051808303816000875af11580156111c6573d6000803e3d6000fd5b505050506040513d601f19601f820116820180604052508101906111ea9190611f4c565b5050565b60005b811561120c578161120281856120e6565b90935091506111f1565b50815b92915050565b60606107806003848154811061122d5761122d611efc565b90600052602060002090600f020160060180548060200260200160405190810160405280929190818152602001828054801561128857602002820191906000526020600020905b815481526020019060010190808311611274575b50505050508360038681548110610cc057610cc0611efc565b60008181600185838083036112be5760009550505050505061120f565b60018213156113055760006112d382846120fa565b9050816112e08185612128565b9093509150846112f0818361213c565b6112fa908661216c565b955093506112be9050565b600083121561131b576113188584612193565b92505b50909695505050505050565b60008080605360178261133a82846120a6565b905060006113496001846120bd565b6113546001866120bd565b61135e91906120a6565b9050600061136d6001836116d0565b9050600061137b82846111ee565b90505b806001146113ff576113916002846116d0565b91506002821180156113a257508282105b6113ee5760405162461bcd60e51b815260206004820152601b60248201527f65206d757374206265206265747765656e203220616e6420706869000000000060448201526064016103d2565b6113f882846111ee565b905061137e565b600061140b83856112a1565b929a9299509397509095505050505050565b60606000845167ffffffffffffffff81111561143b5761143b61190e565b6040519080825280601f01601f191660200182016040528015611465576020820181803683370190505b50905060005b85518110156114d65761149886828151811061148957611489611efc565b6020026020010151868661160f565b60f81b8282815181106114ad576114ad611efc565b60200101906001600160f81b031916908160001a905350806114ce816121bb565b91505061146b565b50949350505050565b60606000845167ffffffffffffffff8111156114fd576114fd61190e565b604051908082528060200260200182016040528015611526578160200160208202803683370190505b50905060005b85518110156114d65761155986828151811061154a5761154a611efc565b016020015160f81c868661160f565b82828151811061156b5761156b611efc565b602090810291909101015280611580816121bb565b91505061152c565b835160208086019190912060408051600080825293810180835283905260ff8716918101919091526060810185905260808101849052829060019060a0016020604051602081039080840390855afa1580156115e8573d6000803e3d6000fd5b5050604051601f1901516001546001600160a01b0390811691161498975050505050505050565b600082600161161f868386611629565b9695505050505050565b6000604d611638856001611755565b61164290856120a6565b11611663578161165284866122b8565b61165c91906120e6565b9050610780565b61166e6002846120e6565b6001036116b55781611696856116856002876122c4565b611690906001612093565b85611629565b6116ab866116a56002886122c4565b86611629565b61165291906120a6565b8160026116c6866116a583886122c4565b61165291906122d8565b60006001600460008282546116e59190612093565b909155508390506116f681846120bd565b600454604080514260208201526bffffffffffffffffffffffff193360601b169181019190915260548101919091526074016040516020818303038152906040528051906020012060001c61174b91906120e6565b6107809190612093565b60008061176184611793565b905061176c8361186b565b801561177a57508381600a0a105b611785576000611788565b60015b60ff16019392505050565b60008072184f03e93ff9f4daa797ed6e38ed64bf6a1f0160401b83106117d25772184f03e93ff9f4daa797ed6e38ed64bf6a1f0160401b830492506040015b6d04ee2d6d415b85acef810000000083106117fe576d04ee2d6d415b85acef8100000000830492506020015b662386f26fc10000831061181c57662386f26fc10000830492506010015b6305f5e1008310611834576305f5e100830492506008015b612710831061184857612710830492506004015b6064831061185a576064830492506002015b600a831061120f5760010192915050565b60006002826003811115611881576118816122e7565b61188b91906122fd565b60ff166001149050919050565b8280548282559060005260206000209081019282156118d3579160200282015b828111156118d35782518255916020019190600101906118b8565b506118df9291506118e3565b5090565b5b808211156118df57600081556001016118e4565b803560ff8116811461190957600080fd5b919050565b634e487b7160e01b600052604160045260246000fd5b604051601f8201601f1916810167ffffffffffffffff8111828210171561194d5761194d61190e565b604052919050565b600082601f83011261196657600080fd5b8135602067ffffffffffffffff8211156119825761198261190e565b8160051b611991828201611924565b92835284810182019282810190878511156119ab57600080fd5b83870192505b848310156119ca578235825291830191908301906119b1565b979650505050505050565b60008060008060008060c087890312156119ee57600080fd5b863595506119fe602088016118f8565b945060408701359350606087013592506080870135915060a087013567ffffffffffffffff811115611a2f57600080fd5b611a3b89828a01611955565b9150509295509295509295565b6000815180845260005b81811015611a6e57602081850181015186830182015201611a52565b506000602082860101526020601f19601f83011685010191505092915050565b600081518084526020808501945080840160005b83811015611abe57815187529582019590820190600101611aa2565b509495945050505050565b60006020808301818452808551808352604092508286019150828160051b87010184880160005b83811015611be157888303603f190185528151805160ff1684526101e081890151858a01528782015188860152606080830151908601526080808301519086015260a080830151818701839052611b4983880182611a48565b9250505060c08083015186830382880152611b648382611a8e565b60e08581015190890152610100808601519089015261012080860151908901526101408086015190890152610160808601519089015261018080860151908901526101a0808601516001600160a01b03908116918a01919091526101c0958601511694909701939093525050509386019390860190600101611af0565b509098975050505050505050565b600080600060608486031215611c0457600080fd5b833567ffffffffffffffff811115611c1b57600080fd5b611c2786828701611955565b9660208601359650604090950135949350505050565b6020815260006107806020830184611a48565b600067ffffffffffffffff831115611c6a57611c6a61190e565b611c7d601f8401601f1916602001611924565b9050828152838383011115611c9157600080fd5b828260208301376000602084830101529392505050565b600082601f830112611cb957600080fd5b61078083833560208501611c50565b600080600060608486031215611cdd57600080fd5b833567ffffffffffffffff811115611cf457600080fd5b611c2786828701611ca8565b6020808252825182820181905260009190848201906040850190845b8181101561131b57835183529284019291840191600101611d1c565b60008060008060808587031215611d4e57600080fd5b843567ffffffffffffffff811115611d6557600080fd5b611d7187828801611ca8565b945050611d80602086016118f8565b93969395505050506040820135916060013590565b600080600060608486031215611daa57600080fd5b505081359360208301359350604090920135919050565b60008060008060808587031215611dd757600080fd5b843567ffffffffffffffff811115611dee57600080fd5b8501601f81018713611dff57600080fd5b611e0e87823560208401611c50565b97602087013597506040870135966060013595509350505050565b600060208284031215611e3b57600080fd5b5035919050565b60ff8f1681528d60208201528c60408201528b60608201528a60808201526101c060a08201526000611e786101c083018c611a48565b90508960c08301528860e08301528761010083015286610120830152856101408301528461016083015260018060a01b038416610180830152611ec76101a08301846001600160a01b03169052565b9f9e505050505050505050505050505050565b60008060408385031215611eed57600080fd5b50508035926020909101359150565b634e487b7160e01b600052603260045260246000fd5b600181811c90821680611f2657607f821691505b602082108103611f4657634e487b7160e01b600052602260045260246000fd5b50919050565b600060208284031215611f5e57600080fd5b8151801515811461078057600080fd5b601f821115611fb857600081815260208120601f850160051c81016020861015611f955750805b601f850160051c820191505b81811015611fb457828155600101611fa1565b5050505b505050565b815167ffffffffffffffff811115611fd757611fd761190e565b611feb81611fe58454611f12565b84611f6e565b602080601f83116001811461202057600084156120085750858301515b600019600386901b1c1916600185901b178555611fb4565b600085815260208120601f198616915b8281101561204f57888601518255948401946001909101908401612030565b508582101561206d5787850151600019600388901b60f8161c191681555b5050505050600190811b01905550565b634e487b7160e01b600052601160045260246000fd5b8082018082111561120f5761120f61207d565b808202811582820484141761120f5761120f61207d565b8181038181111561120f5761120f61207d565b634e487b7160e01b600052601260045260246000fd5b6000826120f5576120f56120d0565b500690565b600082612109576121096120d0565b600160ff1b8214600019841416156121235761212361207d565b500590565b600082612137576121376120d0565b500790565b80820260008212600160ff1b841416156121585761215861207d565b818105831482151761120f5761120f61207d565b818103600083128015838313168383128216171561218c5761218c61207d565b5092915050565b80820182811260008312801582168215821617156121b3576121b361207d565b505092915050565b6000600182016121cd576121cd61207d565b5060010190565b600181815b8085111561220f5781600019048211156121f5576121f561207d565b8085161561220257918102915b93841c93908002906121d9565b509250929050565b6000826122265750600161120f565b816122335750600061120f565b816001811461224957600281146122535761226f565b600191505061120f565b60ff8411156122645761226461207d565b50506001821b61120f565b5060208310610133831016604e8410600b8410161715612292575081810a61120f565b61229c83836121d4565b80600019048211156122b0576122b061207d565b029392505050565b60006107808383612217565b6000826122d3576122d36120d0565b500490565b600061078060ff841683612217565b634e487b7160e01b600052602160045260246000fd5b600060ff831680612310576123106120d0565b8060ff8416069150509291505056fea264697066735822122014fc765d15496d3cbc1016fc36eb56ded17c2f1c5c579eb20978ad2af06e3f5064736f6c63430008140033",
    "linkReferences": {}
  },
  "methodIdentifiers": {
    "completeOrder(uint256)": "b6adaaff",
    "createOrder(string,uint256,uint256,uint256)": "7bc910f0",
    "decrypt(uint256,uint256,uint256)": "d875cc3e",
    "decryptArray(uint256[],uint256,uint256)": "2f205c73",
    "disputeOrder(uint256,uint256,uint256)": "80ab61c9",
    "disputePeriod()": "5bf31d4d",
    "encrypt(uint256,uint256,uint256)": "6f4fb8f4",
    "encryptBytes(bytes,uint256,uint256)": "479694c7",
    "fulfillOrder(uint256,uint8,bytes32,bytes32,bytes32,uint256[])": "19ea2207",
    "gcd(uint256,uint256)": "b9650dac",
    "getKeys()": "2150c518",
    "getOrders()": "2e2dc43e",
    "getUnencryptedPurchase(uint256,uint256)": "e1414268",
    "isTerraSignature(bytes,uint8,bytes32,bytes32)": "6ec33b23",
    "multiplicative_inverse(uint256,uint256)": "f636e15b",
    "orders(uint256)": "a85c38ef",
    "randomNonce()": "39988a55",
    "recursiveExponent(uint256,uint256,uint256)": "8ac32039",
    "terraAddress()": "3ee16c67",
    "usdc()": "3e413bee"
  },
  "id": 26
}